:100000000C945E000C9486000C9486000C94860080
:100010000C9486000C9486000C9486000C94C0040A
:100020000C9486000C9486000C9486000C94860038
:100030000C9486000C9486000C9486000C94860028
:100040000C949A050C9486000C9468050C94420557
:100050000C9486000C9486000C9486000C94860008
:100060000C9486000C9486000000000024002700F9
:100070002A0000000008000201000003040700003D
:10008000000000000000010204081020408001026E
:1000900004081020010204081020000000002500C0
:1000A00028002B00040404040404040402020202D5
:1000B000020203030303030302009D0711241FBE72
:1000C000CFEFD8E0DEBFCDBF21E0AEE3B1E001C0AD
:1000D0001D92A93FB207E1F711E0A0E0B1E0E6E12F
:1000E000F5E102C005900D92AE33B107D9F710E0EB
:1000F000CEE5D0E004C02197FE010E949108CD35E5
:10010000D107C9F70E94E4050C94890A0C940000F9
:10011000AF92BF92CF92DF92EF92FF920F931F9315
:10012000CF93DF936C017B018B01040F151FEB0153
:100130005E01AE18BF08C017D10759F06991D6010A
:10014000ED91FC910190F081E02DC6010995892B7C
:1001500079F7C501DF91CF911F910F91FF90EF903B
:10016000DF90CF90BF90AF900895CF93DF93FC01C5
:10017000448155816081718187E491E00E9488000B
:10018000EC0142E050E06BE171E087E491E00E9415
:1001900088008C0F9D1FDF91CF910895FC01538D36
:1001A000448D252F30E0842F90E0821B930B541751
:1001B00010F0CF96089501970895FC01918D828DDE
:1001C000981761F0A28DAE0FBF2FB11D5D968C9177
:1001D000928D9F5F9F73928F90E008958FEF9FEFB6
:1001E0000895FC01918D828D981731F0828DE80F72
:1001F000F11D858D90E008958FEF9FEF0895FC012C
:10020000918D228D892F90E0805C9F4F821B9109F8
:100210008F739927089587E491E00E94FF0021E001
:10022000892B09F420E0822F089580E090E0892B4B
:1002300029F00E940B0181110C9400000895FC012B
:10024000A48DA80FB92FB11DA35ABF4F2C91848D37
:1002500090E001968F739927848FA689B7892C9394
:10026000A089B1898C91837080648C93938D848DE7
:10027000981306C00288F389E02D80818F7D8083EA
:100280000895EF92FF920F931F93CF93DF93EC01AA
:1002900081E0888F9B8D8C8D98131AC0E889F9892D
:1002A000808185FF15C09FB7F894EE89FF89608330
:1002B000E889F98980818370806480839FBF81E0B1
:1002C00090E0DF91CF911F910F91FF90EF900895F3
:1002D000F62E0B8D10E00F5F1F4F0F731127E02ECE
:1002E0008C8D8E110CC00FB607FCFACFE889F98906
:1002F000808185FFF5CFCE010E941F01F1CFEB8DEC
:10030000EC0FFD2FF11DE35AFF4FF0829FB7F894D9
:100310000B8FEA89FB8980818062CFCFCF93DF93F7
:10032000EC01888D8823B9F0AA89BB89E889F9890D
:100330008C9185FD03C0808186FD0DC00FB607FC42
:10034000F7CF8C9185FFF2CF808185FFEDCFCE0175
:100350000E941F01E9CFDF91CF91089590E0FC0149
:10036000EE58FF4F2491FC01EA57FF4F3491FC01F6
:10037000EC55FF4FE491EE23C9F0222339F02330EE
:1003800001F1A8F4213019F1223029F1F0E0EE0F4B
:10039000FF1FE656FF4FA591B4918FB7F894EC91EB
:1003A000611126C030953E233C938FBF08952730BE
:1003B000A9F02830C9F0243049F7809180008F7D62
:1003C00003C0809180008F7780938000DFCF84B559
:1003D0008F7784BDDBCF84B58F7DFBCF8091B0005C
:1003E0008F778093B000D2CF8091B0008F7DF9CF0E
:1003F0003E2BDACFCF93DF9390E0FC01EA57FF4F1B
:1004000024918C559F4FFC0184918823D1F090E07A
:10041000880F991FFC01E859FF4FA591B491FC0189
:10042000E656FF4FC591D491623071F49FB7F894AE
:100430003C91822F809583238C93E8812E2B2883F7
:100440009FBFDF91CF9108958FB7F894EC912E2B39
:100450002C938FBFF6CF4F925F926F927F928F92C5
:100460009F92AF92BF92CF92DF92EF92FF920F9343
:100470001F93CF938C016A017B0180910201883028
:1004800099F08F3F09F453C0CF911F910F91FF90C6
:10049000EF90DF90CF90BF90AF909F908F907F9024
:1004A0006F905F904F900895E8EBF0E0C491C7FD26
:1004B000EBCF61E088E00E94FA012801712C612CE9
:1004C000CC23F1F0980150E040E0C23009F09EC02A
:1004D00028013A0164E274EF80E090E00E94720823
:1004E00049015A0181E0881A9108A108B10895E0F4
:1004F0008FEF88169104A104B10409F00CF4DFC059
:1005000062E17AE780E090E0A30192010E94720824
:1005100049015A0181E0881A9108A108B10896E0C2
:10052000C111CDC085B5887F846085BD84C088E059
:1005300080930201E8EBF0E0C491CF3F09F4A4CF2F
:10054000C13021F150F0C23009F43EC0C7FD9CCF4C
:1005500061E088E00E94FA01B5CF14BC15BC84B5F7
:10056000826084BD85B5816085BDECEAF0E0E491F0
:10057000F0E0EE0FFF1FE656FF4F85919491EEE8F5
:10058000F0E0E491E093E801C0E093CF10928000A6
:100590001092810080918100886080938100809119
:1005A0008100816080938100ECEAF0E0E491F0E06A
:1005B000EE0FFF1FE656FF4F85919491EEE8F0E0B5
:1005C000E491E093E70175CF1092B0001092B10072
:1005D0008091B00082608093B0008091B100816012
:1005E0008093B100ECEAF0E0E491F0E0EE0FFF1F41
:1005F000E656FF4F859194919093E6018093E50133
:10060000EEE8F0E0E491E093E40153CF60E072E1C2
:100610008AE790E00E94720849015A0181E0881A35
:100620009108A108B108C13031F480918100887F20
:10063000816080938100D801AA0FBB1FA70196019A
:100640000E94FF0728EE33E040E050E00E9450088F
:10065000C13099F0C23019F1C11116CF87BC209377
:10066000F1013093F2014093F3015093F401809132
:100670006E00826080936E0007CF90928900809216
:1006800088002093ED013093EE014093EF015093E9
:10069000F00180916F00826080936F00F5CE8092B0
:1006A000B3002093E9013093EA014093EB015093AA
:1006B000EC0180917000826080937000E5CE8091A3
:1006C000B100887F892B8093B100B5CF3FB7F894F4
:1006D0008091430190914401A0914501B091460160
:1006E00026B5A89B05C02F3F19F00196A11DB11D8D
:1006F0003FBFBA2FA92F982F8827BC01CD01620FC9
:10070000711D811D911D42E0660F771F881F991F83
:100710004A95D1F708958F929F92AF92BF92CF9250
:10072000DF92EF92FF924B015C010E9466036B0126
:100730007C010E9466036C197D098E099F09683E41
:10074000734081059105A8F321E0821A9108A10860
:10075000B10888EEC80E83E0D81EE11CF11C81149C
:100760009104A104B10429F7FF90EF90DF90CF909E
:10077000BF90AF909F908F9008950F931F93CF934A
:10078000DF93EC0188819981009759F02A813B81A0
:100790002617370730F081E0DF91CF911F910F913D
:1007A00008958B016F5F7F4F0E94BC09009759F03D
:1007B000998388831B830A832C813D81232B59F7DE
:1007C000FC011082E8CF80E0E7CFCF93DF93EC010C
:1007D00088819981009711F00E943309198218824B
:1007E0001D821C821B821A82DF91CF9108950F9384
:1007F0001F93CF93DF93EC010C811D810F5F1F4F7F
:10080000B8010E94BD03882391F0288139818C8131
:100810009D816EE171E0820F931F0E94820A1D8309
:100820000C83CE01DF91CF911F910F910895CE01DE
:100830000E94E503F6CFCF93DF93EC011982188273
:100840001B821A821D821C826CE170E00E94BD0333
:10085000811105C0CE01DF91CF910C94E5038CE1AD
:1008600090E09D838C8360E271E088819981DF91C3
:10087000CF910C94820ACF92DF92EF92FF920F9366
:100880001F93CF93DF93CDB7DEB762970FB6F8947F
:10089000DEBF0FBECDBF8C01CB01F80111821082EB
:1008A00013821282158214824AE09E012F5F3F4F0D
:1008B0006901B9010E94CA07F60101900020E9F719
:1008C00031977F01EC18FD08B701C8010E94BD03F4
:1008D000811112C0C8010E94E50362960FB6F89418
:1008E000DEBF0FBECDBFDF91CF911F910F91FF9063
:1008F000EF90DF90CF900895F801F582E482B60181
:10090000808191810E94820AE8CFEF92FF920F933B
:100910001F93CF93DF93EC01FB01E080F180E114A2
:10092000F10411F10481158101151105A9F08C81E3
:100930009D81080F191FB801CE010E94BD038823B5
:1009400099F0288139818C819D81B701820F931F95
:100950000E94820A1D830C83CE01DF91CF911F91EB
:100960000F91FF90EF900895CE010E94E503F4CF20
:10097000FC0180819181009711F00C943309089556
:100980001F920F920FB60F9211242F933F934F9304
:100990005F936F937F938F939F93AF93BF93EF93E7
:1009A000FF938091E9019091EA01A091EB01B09150
:1009B000EC01892B8A2B8B2BD1F19091E401E091F2
:1009C000E501F091E6018081892780838091E9012A
:1009D0009091EA01A091EB01B091EC011816190673
:1009E0001A061B069CF48091E9019091EA01A091FE
:1009F000EB01B091EC010197A109B1098093E901E4
:100A00009093EA01A093EB01B093EC01FF91EF9179
:100A1000BF91AF919F918F917F916F915F914F9116
:100A20003F912F910F900FBE0F901F9018958091BE
:100A30000201E8EBF0E0E4919FEF90930201E130D6
:100A400051F030F0E23069F060E00E94AE01DECF9C
:100A500010926E00F9CF90916F009D7F90936F0080
:100A6000F3CF909170009D7F9093700091E09093F0
:100A7000B0009091B100987F94609093B100109273
:100A8000B300E2CF1F920F920FB60F9211242F9353
:100A90003F934F935F936F937F938F939F93AF9306
:100AA000BF93EF93FF9387E491E00E941F01FF91B2
:100AB000EF91BF91AF919F918F917F916F915F91D6
:100AC0004F913F912F910F900FBE0F901F9018954F
:100AD0001F920F920FB60F9211242F938F939F9313
:100AE000EF93FF93E0915701F09158018081E091DD
:100AF0005D01F0915E0182FD1BC0908180916001DB
:100B00008F5F8F7320916101821741F0E091600146
:100B1000F0E0E95BFE4F958F80936001FF91EF91CC
:100B20009F918F912F910F900FBE0F901F9018954E
:100B30008081F4CF1F920F920FB60F9211242F9342
:100B40003F938F939F93AF93BF9380913F01909179
:100B50004001A0914101B091420130913E0123E05A
:100B6000230F2D3758F50196A11DB11D20933E018D
:100B700080933F0190934001A0934101B0934201C3
:100B80008091430190914401A0914501B0914601AB
:100B90000196A11DB11D8093430190934401A09340
:100BA0004501B0934601BF91AF919F918F913F91C5
:100BB0002F910F900FBE0F901F90189526E8230FCE
:100BC0000296A11DB11DD2CFCF93DF93CDB7DEB773
:100BD0002C970FB6F894DEBF0FBECDBF789484B5C6
:100BE000826084BD84B5816084BD85B5826085BD29
:100BF00085B5816085BD80916E00816080936E00B7
:100C000010928100809181008260809381008091A8
:100C10008100816080938100809180008160809359
:100C200080008091B10084608093B1008091B00019
:100C300081608093B00080917A00846080937A0014
:100C400080917A00826080937A0080917A0081603E
:100C500080937A0080917A00806880937A00109265
:100C6000C100E0915701F091580182E08083E0914A
:100C70005301F09154011082E0915501F091560119
:100C80008FEC808310925F01E0915B01F0915C0139
:100C900086E08083E0915901F0915A018081806162
:100CA0008083E0915901F0915A01808188608083AE
:100CB000E0915901F0915A01808180688083E09130
:100CC0005901F0915A0180818F7D808362E082E03A
:100CD0000E94FA0161E083E00E94FA0161E084E091
:100CE0000E94FA0161E085E00E94FA0161E086E07D
:100CF0000E94FA0161E087E00E94FA0161E088E069
:100D00000E94FA0161E089E00E94FA0161E08AE054
:100D10000E94FA0161E08BE00E94FA0161E08CE040
:100D20000E94FA0161E08DE00E94FA0144EF51E077
:100D300060E070E088EC90E00E942B026AEF70E0C7
:100D400080E090E00E948B0344E650E060E070E0B9
:100D500080E991E00E942B0200E010E061E083E076
:100D60000E94AE0164E670E080E090E00E948B0398
:100D700061E084E00E94AE0164E670E080E090E013
:100D80000E948B0361E085E00E94AE0164E670E0A2
:100D900080E090E00E948B0361E086E00E94AE015B
:100DA00064E670E080E090E00E948B0361E087E001
:100DB0000E94AE0164E670E080E090E00E948B0348
:100DC00061E088E00E94AE0164E670E080E090E0BF
:100DD0000E948B0361E089E00E94AE0164E670E04E
:100DE00080E090E00E948B0361E08AE00E94AE0107
:100DF00064E670E080E090E00E948B0361E08BE0AD
:100E00000E94AE0164E670E080E090E00E948B03F7
:100E100061E08CE00E94AE0164E670E080E090E06A
:100E20000E948B0361E08DE00E94AE0164E670E0F9
:100E300080E090E00E948B0360E082E00E94AE01BF
:100E400060E083E00E94AE0160E084E00E94AE01B9
:100E500060E085E00E94AE0160E086E00E94AE01A5
:100E600060E087E00E94AE0160E088E00E94AE0191
:100E700060E089E00E94AE0160E08AE00E94AE017D
:100E800060E08BE00E94AE0160E08CE00E94AE0169
:100E900060E08DE00E94AE0164E670E080E090E0EA
:100EA0000E948B0360910001709101016130710516
:100EB00091F562E070E0CE0101960E943B04CE0104
:100EC00007960E941B04BE016F5F7F4FCE010796FD
:100ED0000E9485040E94F7030E94B500CE01079688
:100EE0000E94B804CE0101960E94B80480910001CE
:100EF00090910101019690930101809300010115E9
:100F0000110509F42BCF0E940B01882309F426CF89
:100F10000E94000023CF6230710519F464E070E094
:100F2000CACF6330710519F468E070E0C4CF643053
:100F300071052CF3660F771FBECFE7E4F1E0138253
:100F4000128288EE93E0A0E0B0E084839583A683CC
:100F5000B7838DE091E09183808385EC90E0958765
:100F6000848784EC90E09787868780EC90E0918B73
:100F7000808B81EC90E0938B828B82EC90E0958B60
:100F8000848B86EC90E0978B868B118E128E138E5D
:100F9000148E0895BB274A3031F4992322F4BDE220
:100FA000909581959F4F0C94D607BB27FB01552741
:100FB000AA27880F991FAA1FA41710F0A41B8395B6
:100FC0005051B9F7A05DAA3308F0A95DA19300972D
:100FD00079F7B111B1931192CB010C94EF07DC01B9
:100FE000FC01672F71917723E1F7329704C07C9160
:100FF0006D9370836291AE17BF07C8F308950E9486
:101000004108A59F900DB49F900DA49F800D911D48
:10101000112408952F923F924F925F926F927F9288
:101020008F929F92AF92BF92CF92DF92EF92FF92F8
:101030000F931F93CF93DF93CDB7DEB7CA1BDB0BA4
:101040000FB6F894DEBF0FBECDBF09942A88398849
:1010500048885F846E847D848C849B84AA84B98450
:10106000C884DF80EE80FD800C811B81AA81B9815C
:10107000CE0FD11D0FB6F894DEBF0FBECDBFED0170
:101080000895A29FB001B39FC001A39F700D811D61
:101090001124911DB29F700D811D1124911D089581
:1010A000A1E21A2EAA1BBB1BFD010DC0AA1FBB1F6C
:1010B000EE1FFF1FA217B307E407F50720F0A21BDE
:1010C000B30BE40BF50B661F771F881F991F1A944B
:1010D00069F760957095809590959B01AC01BD0175
:1010E000CF010895052E97FB1EF400940E948908F5
:1010F00057FD07D00E94500807FC03D04EF40C9413
:10110000890850954095309521953F4F4F4F5F4F3F
:10111000089590958095709561957F4F8F4F9F4F63
:101120000895EE0FFF1F0590F491E02D09940F93A1
:101130001F93CF93DF938230910510F482E090E00B
:10114000E091F701F091F80130E020E0B0E0A0E09C
:10115000309799F42115310509F44AC0281B390B41
:1011600024303105D8F58A819B816115710589F19B
:10117000FB0193838283FE0111C040815181028172
:10118000138148175907E0F04817590799F4109749
:1011900061F012960C93129713961C933296CF011E
:1011A000DF91CF911F910F9108950093F701109354
:1011B000F801F4CF2115310551F04217530738F0EB
:1011C000A901DB019A01BD01DF01F801C1CFEF01E7
:1011D000F9CF9093F8018093F701CDCFFE01E20F94
:1011E000F31F819391932250310939832883D7CFFC
:1011F0002091F5013091F601232B41F42091050156
:10120000309106013093F6012093F50120910301FE
:10121000309104012115310541F42DB73EB74091BD
:10122000070150910801241B350BE091F501F09165
:10123000F601E217F307A0F42E1B3F0B281739071E
:1012400078F0AC014E5F5F4F2417350748F04E0F22
:101250005F1F5093F6014093F501819391939FCFC7
:10126000F0E0E0E09CCFCF93DF930097E9F0FC0142
:10127000329713821282A091F701B091F801ED012B
:1012800030E020E01097A1F420813181820F931F7C
:101290002091F5013091F6012817390709F061C056
:1012A000F093F601E093F501DF91CF910895EA0103
:1012B000CE17DF07E8F54A815B819E014115510594
:1012C000B1F7E901FB83EA8349915991C40FD51F16
:1012D000EC17FD0761F4808191810296840F951FC0
:1012E000E90199838883828193819B838A83F0E0DB
:1012F000E0E012968D919C9113970097B9F52D918E
:101300003C911197CD010296820F931F2091F50118
:101310003091F6012817390739F6309751F51092B8
:10132000F8011092F701B093F601A093F501BCCF3C
:10133000D383C28340815181840F951FC817D90779
:1013400061F44E5F5F4F88819981480F591F518327
:1013500040838A819B81938382832115310509F023
:10136000B0CFF093F801E093F7019ECFFD01DC01CF
:10137000C0CF13821282D7CFB0E0A0E0E2ECF9E058
:101380000C940C088C01009751F4CB010E94970833
:101390008C01C801CDB7DEB7E0E10C942808FC0150
:1013A000E60FF71F9C0122503109E217F30708F4FA
:1013B0009DC0D901CD91DC911197C617D70798F040
:1013C000C530D10530F3CE0104978617970708F38F
:1013D000C61BD70B2297C193D1936D937C93CF01FA
:1013E0000E943309D6CF5B01AC1ABD0A4C018C0EAA
:1013F0009D1EA091F701B091F801512C412CF12CC8
:10140000E12C109731F58091F5019091F601881546
:10141000990509F05CC04616570608F058C080913F
:10142000030190910401009741F48DB79EB740915C
:10143000070150910801841B950BE817F90708F084
:1014400055C0F093F601E093F501F90171836083D3
:10145000A0CF8D919C91119712966C901297139634
:101460007C901397A815B90559F56C0142E0C40E9C
:10147000D11CCA14DB0420F1AC014A195B09DA0162
:101480001296159780F06282738251834083D9014E
:101490006D937C93E114F10471F0D7011396FC93E2
:1014A000EE93129776CF22968C0F9D1FF9019183B0
:1014B0008083F301EFCFF093F801E093F70169CF58
:1014C0004816590608F42C017D01D3019ACFCB01AF
:1014D0000E9497087C01009749F0AE01B8010E9474
:1014E000790AC8010E943309870153CF10E000E058
:1014F00050CFFB01DC0102C001900D9241505040E1
:10150000D8F70895FB01DC0101900D920020E1F76E
:061510000895F894FFCFDE
:101516000100FF0000F90180000000000041018881
:1015260000CE008E01FF00DD00F1000D0A0029004B
:10153600466173746572205832202843757272654D
:0E1546006E74205370656564203A20580000D2
:107E0000112484B714BE81FFF0D085E080938100F7
:107E100082E08093C00088E18093C10086E0809377
:107E2000C20080E18093C4008EE0C9D0259A86E02C
:107E300020E33CEF91E0309385002093840096BBD3
:107E4000B09BFECF1D9AA8958150A9F7CC24DD24C4
:107E500088248394B5E0AB2EA1E19A2EF3E0BF2EE7
:107E6000A2D0813461F49FD0082FAFD0023811F036
:107E7000013811F484E001C083E08DD089C08234E0
:107E800011F484E103C0853419F485E0A6D080C0E4
:107E9000853579F488D0E82EFF2485D0082F10E0AE
:107EA000102F00270E291F29000F111F8ED06801E7
:107EB0006FC0863521F484E090D080E0DECF843638
:107EC00009F040C070D06FD0082F6DD080E0C81688
:107ED00080E7D80618F4F601B7BEE895C0E0D1E017
:107EE00062D089930C17E1F7F0E0CF16F0E7DF06D8
:107EF00018F0F601B7BEE89568D007B600FCFDCFD4
:107F0000A601A0E0B1E02C9130E011968C91119780
:107F100090E0982F8827822B932B1296FA010C0160
:107F200087BEE89511244E5F5F4FF1E0A038BF0790
:107F300051F7F601A7BEE89507B600FCFDCF97BE46
:107F4000E89526C08437B1F42ED02DD0F82E2BD052
:107F50003CD0F601EF2C8F010F5F1F4F84911BD097
:107F6000EA94F801C1F70894C11CD11CFA94CF0C13
:107F7000D11C0EC0853739F428D08EE10CD085E9AC
:107F80000AD08FE07ACF813511F488E018D01DD067
:107F900080E101D065CF982F8091C00085FFFCCF94
:107FA0009093C60008958091C00087FFFCCF809118
:107FB000C00084FD01C0A8958091C6000895E0E648
:107FC000F0E098E1908380830895EDDF803219F02E
:107FD00088E0F5DFFFCF84E1DECF1F93182FE3DFCA
:107FE0001150E9F7F2DF1F91089580E0E8DFEE27F6
:047FF000FF270994CA
:027FFE00040479
:0400000300007E007B
:00000001FF
